S0180000476363426F61726450726F6A656374322E737265630E
S1130000F0770020494A0000454A0000454A0000B4
S113001000000000000000000000000000000000DC
S1130020000000000000000000000000454A00003D
S11300300000000000000000454A0000454A00009E
S1130040454A0000454A0000454A0000454A000070
S113005089410000454A00006D0C0000453900004C
S1130060454A00003D1000004D1000005D100000E6
S11300706D1000000000000000000000454A000070
S1130080454A0000454A0000BD180000CD18000094
S1130090DD1800000000000000000000454A0000D8
S11300A0454A0000454A0000454A0000454A000010
S11300B00000000010B5064C2378002B07D1054B37
S11300C0002B02D0044800E000BF0123237010BDC0
S11300D0B00200200000000040AC0000084B10B546
S11300E0002B03D00749084800E000BF0748036815
S11300F0002B00D110BD064B002BFBD09847F9E72D
S113010000000000B402002040AC000040AC00003D
S11301100000000010B5072101403039C9B20120A8
S1130120014B984710BDC0462D03000010B50400D4
S1130130C30722D5002105201F4B9847A30721D5CB
S1130140002106201C4B9847630720D50021072077
S1130150194B984723071FD500210820164B9847B1
S1130160E3061ED500210920134B9847A3061DD48E
S113017081210A20104B984710BD812105200E4B88
S11301809847DBE7812106200B4B9847DCE7812168
S11301900720094B9847DDE781210820064B984743
S11301A0DEE781210920044B9847DFE700210A207C
S11301B0014B9847E0E7C0462D03000010B50C0042
S11301C0024B98472000024B984710BD15010000D0
S11301D02D010000F8B5094E094C0A4F00E01D003E
S11301E0320016212000B84773780F229343C02BA6
S11301F003D06B1CDBB2022DF1D9F8BDE02B00203B
S1130200000000202D2D000010B5054B1B78002B9D
S113021000D010BD0122034B1A70034B9847F8E736
S1130220AD560020CC020020D501000070B584B08A
S113023003230093C0239B02019302256B461D7286
S113024001265E729E72DD7269460320124B984746
S1130250002203211148124B98470020114B984764
S113026003AC0023A37026706570210000200E4E9D
S1130270B04721000220B04721000120B0472100EF
S11302800520B047094B9D6120225A611C3A5A61EE
S1130290074B984704B070BDA50D0000090200008B
S11302A01D410000F1020000DD4100000044004156
S11302B0B5020000F0B583B001AC094B1B88238064
S11302C0084E012777616420074DA847B761642071
S11302D0A84702212000054B984703B0F0BDC04653
S11302E094A5000000440041A5310000AD2C00009D
S11302F010B5002804D100210320044B984710BDF9
S113030000210320024B9847F9E7C04669410000E9
S113031049410000002803D10422034B5A6170476D
S11303200422014B9A61FAE700440041F0B585B01C
S1130330020001900E0003AB40321A7000225A7082
S113034099700424074D084F032103A8A847019876
S1130350B847864203D0013CE4B2002CF4D105B086
S1130360F0BDC046AD2C00006D03000000B583B0A5
S113037001AB020020321A7000225A709A700023D6
S1130380172802D9180003B000BD032101A8024BAD
S11303909847024B9B78F5E7AD2C0000945600205B
S11303A080B500AF0D4B98470D4B98473F21002077
S11303B00C4B9847D02101200B4B9847C3210220B6
S11303C0094B984760210320074B984720211520AB
S11303D0054B9847C046BD4680BDC046792B0000FA
S11303E02D020000BD0100002D03000070B5051CA6
S11303F01649174B984700280FD01649281C144B50
S11304009847002801D1042070BD1349281C104BC3
S11304109847431E98410530F6E71049281C0C4BB9
S11304209847002807D00E49281C094B9847431EBB
S113043098410230E8E701240A49281C044B9847F4
S1130440002800D10024E0B2DEE7C04600004844A2
S1130450F15500000000C84300004843000048452F
S11304600000C8440000C8450020704710B51F4B69
S11304701B785AB20020002A00DB10BD6022134012
S1130480202BFAD1194B5A78402A2CD89300184AB9
S1130490D3589F46174B98470120EEE7164B9847D1
S11304A00120EAE7154B98470120E6E7144B9847EB
S11304B00120E2E7134B98478120134B9847012012
S11304C0DBE7124B98470120D7E7084B104A9A60A4
S11304D018229A810120D0E7044B0E4A9A60012227
S11304E09A810120C9E70020C7E7C046282F0020D1
S11304F098A500002D4E0000494E00006D4E0000EE
S1130500A54E0000E14E0000CD240000F94E00008D
S1130510180000203000002010B5014B984710BD92
S1130520E54D000010B5014B984710BDC54D0000C6
S113053010B582B00B000092020000218120024C11
S1130540A04702B010BDC0461125000010B582B00E
S11305500B00002A07D00092020000210220044C64
S1130560A04702B010BD034A8C230348F3E7C046FA
S1130570112500007D050000002C002010B5002886
S11305801AD1104B1B78012B0ED0022B15D10D4B19
S11305901B7A002B10D10B480B4B984700280BD12A
S11305A002300A4B984707E009480A4B9847002253
S11305B000210020084B984710BD1000074B9847B6
S11305C0FAE7C046002C0020355000009D230000AF
S11305D00C2C0020894B00004D050000DD2100009B
S11305E010B5114B1B681A689478D3781B02234307
S11305F0D2180378C018904210D24378042B0FD03D
S11306008B420AD00378C018904205D24378042B59
S113061008D08B42F6D100E0002010BD0020FCE79A
S11306200020FAE70020F8E7DC02002010B5034BB5
S11306305B887F201840024B984710BD282F00206C
S1130640E926000070B5194B1B780022002B29D035
S1130650174B1B681B681C79844223D9154A136005
S11306609A78DC78240214431C19A3421CD2002576
S1130670012607E00F4A13600FE01A789B18350033
S1130680A3420CD25A78042AF7D19A788242F4D140
S1130690DA788A42F1D1002DECD1012202E0054A38
S11306A013600022100070BD0022FBE7D802002076
S11306B0DC020020E0020020F0B5C64600B50400CC
S11306C00021134B9847051E03D1280004BC904613
S11306D0F0BD104B1B685B68A200D3589846DB68DA
S11306E09847010020000A4B9847051EEDD00A4B9D
S11306F01C680A4E0A4F05212000B047041E02D090
S11307008078B847F7E743465B689847DDE7C0461B
S113071045060000DC020020E0020020E1050000A4
S113072029220000F8B505000F4B9847002819D07E
S11307300E4B1C680E4E0F4F05212000B047041EBF
S113074009D00379427912021A43C1788078B847F4
S11307500028F1D106E0084B1B685B68AD00EB583C
S11307601B689847F8BDC04645060000E00200201B
S1130770E105000081220000DC02002010B5014BDD
S1130780984710BD9927000070B50E4B1B78002BBD
S113079011D00D4B1B681B681B79002B0BD0002458
S11307A00A4E094D2000B0470134E4B22B681B689F
S11307B01B79A342F6D80022024B1A700132044B73
S11307C01A8070BDD8020020DC020020B9060000A7
S11307D0CE02002070B50E4B1B78002B17D00D4BAA
S11307E01B681A681279002A11D00024094D06E00A
S11307F00134E4B22B681A681279A24207D95B6803
S1130800A200D3581B69002BF2D09847F0E770BDC3
S1130810D8020020DC020020F8B5AC4B00229A81FB
S11308201A615A611B785AB2002A13DB60221A42F9
S113083000D1DAE0A54B1A781F231340012B00D115
S113084076E1A24B1A781F2313400020022B00D11B
S1130850CCE1F8BD9D4AD2880020002AF9D060215D
S11308601942E7D11F210B4008D19849497806293C
S113087023D0082900D187E0002917D0012B00D10B
S11308808AE0022BD6D1914B5B780020002B00D05C
S1130890A8E1022AD5D18D4B18798D4B98478D4B01
S11308A01880022118008C4B9847FFE0022AC8D117
S11308B002318A48884B9847F8E0844B5A88130AD7
S11308C0022B23D0D9B202290FD9032B34D00F2BFA
S11308D000D084E1824B98680028B2D08378C17834
S11308E0090219437C4B984707E0012B00D076E1BD
S11308F07B4B18680178784B9847744BDA889B894E
S1130900934200D8D2E0714B9A81CFE0D2B2744BBB
S11309101B685B7C934200D893E7714B5B68D20001
S1130920D0588378C178090219436B4B9847674BB9
S11309309B6802225A70E0E7FF231A40012A20D064
S1130940002A19D0022A00D178E1032A00D071E7E5
S11309500C21644C644A02320023E05C10800133B1
S11309600232D8B28142F8D8490002315E4801709F
S113097089B2594B9847C0E704215C48564B9847C5
S1130980BBE75B4C0921E5E7012A00D059E70121C7
S11309905848514B984789E04C4949780A2900D076
S11309A06FE7012A00D0C3E0524B1B78002B00D123
S11309B0BEE0464B1C79504B1D682B681B79A34243
S11309C000D8B5E0002120004C4B9847002800D106
S11309D030E76B68A400E358DB689847484B18700D
S11309E0012118003C4B984760E01F2213405FD15F
S11309F0364A5278032A00D1F3E0D1B203293BD915
S1130A00052A4BD0092A53D1304BDB88002B00D068
S1130A1017E73C4B9847002800D10BE72B4B9A78FB
S1130A202F4B1B685B7C9A4200DD03E7364B9847EB
S1130A30264B9B782F4A1370002B37D0334A9446A9
S1130A406344DB00264A5268D3182B4A13601B68A0
S1130A501B79002B2AD000242D4D160000212000E4
S1130A60A847002800D1E5E60134E4B233681B68E6
S1130A701B79A342F2D819E0012A19D1134BDB8860
S1130A80002B00D0DDE6114B5B88012B00D0D8E6AB
S1130A90124A138802218B43138007E00B4BDB8837
S1130AA0002B00D0CDE61B4A084B1A610120D0E68A
S1130AB0012B31D0022B00D0BCE6044B5B78012B18
S1130AC06CD0032B00D178E000208BE0282F00208D
S1130AD089230000D002002009270000CE02002054
S1130AE0480000209CA6000094000020B0000020D4
S1130AF0B4000020D8020020DC02002045060000DB
S1130B00D4020020F926000089070000FFFFFF1F20
S1130B10250700002D0600004A4A52780B2AC9D145
S1130B20484BDB88002B03D1474B1B78002B27D184
S1130B30454B1B780020002B00D18AE6414B1C79E1
S1130B40424B1D682B681B79A34200D881E6002123
S1130B5020003F4B9847002800D172E66B68A20042
S1130B60D558EB68984701002000394B9847002876
S1130B7000D166E6AB689847002800D069E660E6D5
S1130B80304B1D795C882800324B9847002800D1EF
S1130B9050E6E1B22800304B984723E0294BDB882C
S1130BA0002B00D04DE6274B5B88002B00D048E695
S1130BB0244B1879294B984714E0224BDB88002BEF
S1130BC000D03EE61F4B5B88002B00D039E61D4C5D
S1130BD02079234B98472079224B984702E0002044
S1130BE000E00020002800D033E623E6164B1B78F3
S1130BF0002B00D12DE6154B1B681A681279002AC8
S1130C001AD00025124E114F5B68AA00D458E3682D
S1130C10984701002800B047002800D119E6A368CE
S1130C209847002800D014E60135EDB23B681A68F5
S1130C301279AA42E8D80CE600200AE60D210A4CF3
S1130C4088E6C046282F0020D8020020DC020020BD
S1130C5045060000B906000025070000CD24000069
S1130C60DD2100009D230000C000002010B5264BAC
S1130C70984726490B8C0F2213409B002448185890
S1130C8003781A403F23CA540F33CA5CD2B20378A4
S1130C901B012049C91849881F4CE3185B88CB1AEB
S1130CA04361D3070FD501214E23184AD1543E3B4B
S1130CB04374037CDB0703D54368002B00D09847BB
S1130CC0164B984710BD93070DD502214E230F4AAA
S1130CD0D15400234374037C9B07F1D58368002B14
S1130CE0EED09847ECE75307EAD504214E23074A90
S1130CF0D154483B4374037C5B07E1D5C368002BA4
S1130D00DED09847DCE7C0460542000000480041B9
S1130D10E4020020902C0020000300204542000043
S1130D20044A137802210B43137053785BB2002BEF
S1130D30FBDB70470018004000B583B0124A93698A
S1130D4040210B43936101A900230B7005200F4B35
S1130D50984705200E4B98470E4A137801210B4300
S1130D60137053785BB2002BFBDB0B4B1900403143
S1130D70002204C39942FCD11022084B1A60084B8C
S1130D80984703B000BDC04600040040ED48000091
S1130D906148000000180040E02C002000E100E061
S1130DA0210D0000F0B583B005000C0001A900235B
S1130DB04B70CB7023790B70237A8B702078154B92
S1130DC0984700201F2D00D8134807222A4092007C
S1130DD0E77AA37A002B01D008231F43EB089B007A
S1130DE0C31899690F269640B14397403A000A43C5
S1130DF09A61637A002B06D143690122AA40934386
S1130E00436103B0F0BD42690123AB401343436126
S1130E10F7E7C046E54900000018004010B549084E
S1130E2040230024814202D2180010BD1C00091A7C
S1130E30631C9BB28842F9D94023FF2CF4D8148058
S1130E400023F1E710B582B004000E4B1B78002B91
S1130E5007D0002905D10B4B5B78834210D01D20AD
S1130E600CE001A90C701320074B98471320074B83
S1130E709847044B5C7001221A70002002B010BD28
S1130E800020FBE750030020ED480000614800000B
S1130E902B4B984223D00FD92A4B98422FD02A4B60
S1130EA0984242D101293AD0002946D0022938D0AB
S1130EB0032938D0002039E0244B984235D1012948
S1130EC007D0002933D0022905D0032905D00020FA
S1130ED02CE01F482AE01F4828E01F4826E001298B
S1130EE007D0002925D0022905D0032905D00020E8
S1130EF01CE01A481AE01A4818E01A4816E00129BA
S1130F0007D0002917D0022905D0032905D00020D5
S1130F100CE015480AE0154808E0154806E01548B5
S1130F2004E0154802E0154800E00020704714482A
S1130F30FCE70320FAE71348F8E71348F6E7C0464E
S1130F40000C00420010004200140042000800425D
S1130F50030005000300060003000700030001006E
S1130F6003001E0003001F000300090003000A0021
S1130F7003000B0003001100030012000300130020
S1130F8003000400030008000300100030B585B01E
S1130F906A460F4B32CB32C21B6813600300009ABF
S1130FA0824211D0019A82420AD0029A824209D026
S1130FB00020039A9A4201D005B030BD033004E00A
S1130FC0012002E0022000E00020C0B2F4E7C046A5
S1130FD0ACA600007047000030B50B4B1B78002B0B
S1130FE00ED10A4C0A4D25600A4B00221A60656036
S1130FF05A60A5609A60E560DA600132024B1A70AB
S11310008000024BC15030BD520300205403002025
S1131010D50F0000202D002010B582B001AC0923AB
S11310202370013363700133A3700133E370024B07
S11310309847205602B010BD8D0F000010B5024B2A
S11310401B680020984710BD5403002010B5024BC4
S11310505B680120984710BD5403002010B5024B73
S11310609B680220984710BD5403002010B5024B22
S1131070DB680320984710BD5403002070B582B08C
S113108005000C0000226B46DA8006683000244B11
S113109098471F2318401E3B8340802221498B50D0
S11310A02A68D369002BFCD18F33337533763368C8
S11310B00222934333602868C369002BFCD11A4B86
S11310C098471430C0B2194B984701006B469A1DDB
S11310D02000174B9847041E03D01724200002B0A9
S11310E070BD6B4606331B7833732E68F369002B8F
S11310F0FCD130000A4B98471F2318401E3B834005
S1131100084A13602A68D369002BFCD13368022291
S1131110134333602A68D369002BFCD1DEE7C04651
S11311201910000000E100E08D0F000009490000E3
S11311301D0E0000F0B58BB005000C0016002960F0
S11311400B681C209B0701D50BB0F0BD0B6817384A
S1131150DB07F9D408006F4B98476F4A116A871C64
S11311600123BB400B43136209A92427F35D0B70D1
S11311701430C3B201931800684B98470198684B28
S11311809847F05D0021674B98473378012B3FD097
S11311903378002B03D123680822134323602B00E8
S11311A00C3329002831002204C38B42FCD10023D4
S11311B0EB62AB620024AB862B863633EC540133EE
S11311C0EC540133EC54353B6B722C712868514B51
S11311D0984707005449554B9847BF00544BFD505E
S11311E02F6804AB80221A705C707F3A9A70DC70AE
S11311F03378002B02D1002204AB9A70B36A0593B2
S1131200F36A0693336B0793736B089300240BE024
S113121023680C2213432360BAE73800454B9847F0
S11312200AE00134042C10D0E1B2A30002AA0C207D
S11312301218D0580028F0D0431CF2D004A908702A
S1131240000CC0B23C4B9847EBE733786B71337CAE
S1131250AB71B37CEB71337D2B72002202ABDA806D
S11312603378012B12D03378002B26D1B069B28B9E
S11312707B6AF17F0904B47F2143194379622023F7
S1131280F35C002B1BD040231A4318E02868214B41
S113129098471430C0B2294B9847010002AB9A1DFD
S11312A0B069274B984703001720002B00D04BE769
S11312B002AB06331B783B73D5E70022002073682A
S11312C0B1680B43F1680B430343317C0A43717CDF
S11312D0002903D11B498978890701D580210B4353
S11312E0B17C002902D0802189020A43F17C0029C3
S11312F002D0802189000A43317D002902D0802157
S113130089010A4339680B433B607B681A437A605E
S1131310002019E78D0F000000040040ED48000094
S113132061480000450E000001160000D90F0000BE
S1131330202D0020910E0000E5490000094900001D
S11313401D0E000000200041F0B5DE4657464E4613
S11313504546E0B585B08846039299463823C35C78
S11313600524052B03D012344B46002B07D1200053
S113137005B03CBC90469946A246AB46F0BDC37945
S11313800534002BF3D04379002B03D103681A7E74
S1131390920707D44B46591E89B200239A4601226C
S11313A0042775E002221A76F4E702233376042434
S11313B0DDE702339BB24446A65D36025C46344305
S11313C08FE002339BB241466646895D0902029E64
S11313D00E431AE00199013989B201910468267E0D
S11313E03E4219D1013D002D16D00468267E1642D6
S11313F0F4D05E1CB6B2B4464646F15C0E000291CF
S113140081790129DDD0B6B26346217E1142E1D053
S1131410F605F60DA662DDE70199257E0226354222
S113142005D1247E3C4200D1CEE00E0004E002232C
S1131430237604249BE70E000568297E3942FCD0FC
S11314404946013989B28946297E394200D1BDE035
S1131450698B00240194394202D06F831E210191CB
S11314608179012949D0AD6AEDB20199002900D0F2
S1131470B4E05146013189B28B46039C5146655410
S11314808479012C3DD0DA46711E89B2002E45D0F4
S11314904479002C13D10668347E144206D1504C92
S11314A0357E154202D1013C002CF9D1347E02254F
S11314B02C4200D079E7347E144200D182E00568E2
S11314C02C7E1442FCD05E1CB6B24446E45CA346B7
S11314D08479012C00D16CE75B466C46A380A48818
S11314E033002E7E164202D0E405E40DAC6244794A
S11314F0002CA0D13B4D019177E7AD6AED05ED0DD0
S1131500B3E702218C46E24451466C46218121898D
S11315108A462D0A03995C460D55B5E7019C43792B
S1131520012B10D0002B00D021E74B46002B00D11B
S11315301DE7042721001E2504005046039B9846FE
S11315400291494626E0016802220B7E1342FCD038
S11315500DE7337E3B423BD0013989B2337E3B42B7
S113156038D0738B029A01923B4201D07783019564
S1131570A379012B1AD0B66AF6B2019B002B2BD1AA
S1131580431C9BB242461654A279012A12D0180079
S1131590002915D02668337E3B42DAD1104B327EC7
S11315A03A42D6D1013B002BF9D1D2E7B66AF6050F
S11315B0F60DE2E7023080B2360A4246D654E7E737
S11315C0019CD4E61224D2E61224D0E61024CEE6FE
S11315D01224CCE61024CAE6019CC8E6019CC6E6A7
S11315E01027000011270000931C9B00C3185960AA
S11315F03621012393401A00435C1343435470473C
S1131600F8B58000854BC45826683723E35C36223E
S1131610A75C1F40337EB57D1D40EB072ED5637953
S1131620012B25D0002B29D1637A002B26D02168E9
S1131630E26A1378DBB2501CE062A079012800D181
S113164069E09BB2DB05DB0D8B62A38E013B9BB291
S1131650A386A38E9BB2002B10D101333375637A1A
S1131660012B0BD1E379002B08D10233B37505E0CC
S1131670637A002B3ED0637A002BD8D16B0711D547
S1131680738B5B0751D5637A012B08D01E22382354
S1131690E254353B6372023333753B0741D4B36A7A
S11316A004237383AB0715D56379002B0ED107335D
S11316B03375053B3376013363720023A386238697
S11316C038330022E254FB0600D57FE06379012B16
S11316D000D17FE02B0708D56379002B05D10833AF
S11316E033753376BB0600D58AE06DB2002D00DA7F
S11316F08AE0F8BD4A4B1B88B362638E013B9BB200
S11317006386638E9BB2002B01D1013333756379F9
S1131710012BB0D086E75078000203430232E26224
S113172090E72000A3699847B9E7637A012B27D093
S113173023689B6ADB05DB0DDAB2A16A0A70A26A30
S1131740511CA162A179012933D0238E013B9BB2A4
S11317502386238E9BB2002BA4D100223833E2547B
S1131760343B3375637A022B29D0637A002B00D083
S113177098E7BB0700D495E720002369984791E7D1
S113178023689B6A638E013B9BB26386638E9BB224
S1131790002B00D086E70433337500223433E2543F
S11317A0353B6372FB0700D47CE72000E36898476D
S11317B078E71B0A5370A36A0133A362C5E77B076A
S11317C000D46FE72000636998476BE72000E36962
S11317D098477BE7637A012B00D086E7E379002BF7
S11317E000D082E70233337501336372002235334C
S11317F0E254FB0700D46DE72000E368984769E7EB
S11318002000236A984770E78023337533767B067C
S113181000D46EE7636A200098476AE7202D002011
S1131820302D0020931C9B001950022A09D0032A52
S11318300CD0012393401A00037E13430376002047
S11318407047037E102213430376F8E7037E2022B9
S113185013430376F3E7000070B58000164BC458B9
S113186023689D7B227E637E13401D40EB0706D4D4
S1131870AB070BD4EB0610D4AB0615D470BD200017
S1131880A3689847012322689373F1E72000E36873
S11318909847022322689373ECE720002369984752
S11318A0102322689373E7E720006369984723684D
S11318B020229A73E2E7C046342D002010B50020A0
S11318C0014B984710BDC0465918000010B50120BF
S11318D0014B984710BDC0465918000010B50220AE
S11318E0014B984710BDC0465918000030B585B06B
S11318F001AA0B4B32CB32C2019B98420DD0029B02
S1131900984208D00023039A824202D0180005B0FE
S113191030BD023302E0012300E00023DBB2F5E72F
S1131920BCA60000F0B587B004000D001600080046
S1131930854B9847070005AB1B221A7001325A7079
S11319409A7003AB802212011A80802252015A80BD
S1131950802292019A800023A360E3602361636183
S1131960237663768200794BD4502560B378082BB4
S113197006D023712B880520DB0705D507B0F0BD01
S11319801720FA07FAD5F4E7EB7B1730DB06F5D41A
S11319902B889B07F2D4337C002B79D1337F002B27
S11319A000D081E06A49086A7A0003ABD35A034342
S11319B00B62B378082B00D186E001A933780B7051
S11319C005ABDF5D3800634B98473800624B98479E
S11319D03189B3880B43B178B279114319437378D1
S11319E0002B02D080231B0119432268D37B5BB2F6
S11319F0002BFBDB2980717B4B1E99418900B37B53
S1131A00002B01D0012319432268D37B5BB2002B46
S1131A10FBDBFF232B71002905D02268D37B5BB24B
S1131A20002BFBDB6971B17AF37A002B01D0102310
S1131A301943337B002B01D0202319432268D37B25
S1131A405BB2002BFBDBA9712268D37B5BB2002B5A
S1131A50FBDB2379042B3FD0082B5ED01720002B0F
S1131A6000D08BE7D37B5BB2002BFBDB338D2B8267
S1131A702268D37B5BB2002BFBDB738D2B83226844
S1131A80D37B5BB2002BFBDBB38D6B83002075E74C
S1131A9002A901238B700022CA70327E0A704B7037
S1131AA0307D2E4B984779E702A901238B700022E1
S1131AB0CA702432B21812780A704B701F33F318AC
S1131AC01878264B98476DE7086A7A1C520003ABD6
S1131AD0D35A03430B6270E7D37B5BB2002BFBDB6F
S1131AE02823F35C2B742268D37B5BB2002BFBDBD3
S1131AF02923F35C2B752268D37B5BB2002BFBDBC1
S1131B002A23F35C2B762268D37B5BB2002BFBDBAE
S1131B102B23F35C6B76002030E7D37B5BB2002B86
S1131B20FBDBB36A2B612268D37B5BB2002BFBDB4C
S1131B30F36AAB612268D37B5BB2002BFBDB336BB4
S1131B40EB6100201AE7C046ED180000342D002098
S1131B5000040040ED48000061480000E549000031
S1131B6010B584B003AB00221A7003325A70013AE4
S1131B709A70013ADA70274B1B78834207D0002809
S1131B8007D1244B1B78002B23D1224B187004B0AF
S1131B9010BD03AB1B5C204AD25CFF2A00D1FEE7D8
S1131BA0EFF3108251424A41019272B6BFF35F8F44
S1131BB000211A4A1170019C1749CA5C0132CA54A7
S1131BC0002CDED00122154B1A70BFF35F8F62B672
S1131BD0D7E703AAD35C104AD25C002A00D1FEE7FF
S1131BE0EFF3108251424A41029272B6BFF35F8F03
S1131BF000210A4A1170029C0749CA5C013ACA547E
S1131C00002CC2D00122054B1A70BFF35F8F62B65D
S1131C10BBE7C046BC030020F82B0020D400002002
S1131C2043060BD00F2303405B00C0091818023889
S1131C30830018188000024B181870470020FCE736
S1131C406C030020F0B5D6464F464646C0B58946DB
S1131C508D796BB2002B26DB28005E4B984704007D
S1131C600F272F40038A98464B461B889A46837C4D
S1131C705B076AD4E36853441E00E360A3689E4292
S1131C8000D874E0E360A37C01229343A374236827
S1131C90002B03D0E1682A00002098471CBC904622
S1131CA09946A246F0BD28004A4B984704000F27E6
S1131CB02F40038A98464B465E88C3689C46664418
S1131CC0C66081688E4225D08D1BADB2424B9D42C9
S1131CD006D91D0041461800404B98476D1AADB215
S1131CE0A27C0023920707D5414628003C4B984725
S1131CF089B24B424B41DBB25B00A27C02218A4396
S1131D001343A374626892192B0039003548364C8A
S1131D10A047C3E7837C9B070BD4837C01229343B6
S1131D2083740368002BB9D02A003100002098473F
S1131D30B4E7837C0222934383744268921900239C
S1131D4039002848284CA047A8E74368C26894464D
S1131D5063441E0041468068214B98470A007B1E5D
S1131D609B01224959183000214B984782E74A4683
S1131D709288524500D086E79E4200D183E79B1BA0
S1131D809DB2154B9D4216D91D0041461800134BB8
S1131D9098476B1A9BB2984514D9A37C0422134329
S1131DA0A3747A1E9201114BD218434639000D4890
S1131DB0104CA04772E741462800094B98476B1A1C
S1131DC09BB2E8E76268921939000648094CA047BB
S1131DD064E7C046211C0000FF1F000045550000B9
S1131DE071530000C02D00205D380000402D0020FC
S1131DF0B1720000B138000010B50522054B1A700D
S1131E00054C80212000054B984700212000044BFD
S1131E10984710BD6A030020C02D0020B137000090
S1131E20D737000070B5084C06212000074DA8479D
S1131E3004212000A84702212000054B98470220D6
S1131E40044B984770BDC046C02D0020F1320000FD
S1131E50D1320000611B000070B5134B9B8C9B06B4
S1131E601CD41149D022CB681340D02BFBD10F4C8A
S1131E70022120000E4B9847042120000D4DA84755
S1131E800D4A062120000D4B984706212000A84743
S1131E9003200B4B98470B4B984770BD0249102207
S1131EA0CB681A42FCD0E2E700080040C02D0020B5
S1131EB0F1320000D1320000251E0000AD320000D6
S1131EC0611B0000214E000030B583B004001E4B9E
S1131ED0984780232268937201AD28001B4B9847D2
S1131EE003236B7029002000194B984719492000DF
S1131EF0194B9847194B022200212000184DA8477E
S1131F00184B002200212000A847174B0122002172
S1131F102000A847022200212000144DA8470022D7
S1131F2000212000A847012200212000A8472168A1
S1131F300B890F4A1A408023DB0013430B810022D4
S1131F400C4B1A7003B030BD89070000FD3400004B
S1131F500D350000402F002001390000B1200000A1
S1131F600D330000CD230000B51F00005D330000D9
S1131F70FFF3FFFF6A03002010B50322074B1A701A
S1131F80074C08492000084B9847084B9A680023DF
S1131F9000212000064CA04710BDC0466A03002063
S1131FA0C02D0020402F002001390000282F0020E0
S1131FB05D38000010B589794BB2002B06DB0E4B5F
S1131FC01B78022B0FD0032B11D010BD0A4B1B78AA
S1131FD0012B05D0042BF8D10848094B9847F4E7A6
S1131FE0084B9847F1E70422034B1A70EDE70348C6
S1131FF0034B9847E9E7C0466A030020C02D002040
S1132000B1370000791F000070B5204B1B88204AAF
S11320109489E41AA4B2002C18D11E4A11885B18C2
S11320209BB213801A4AD2889A4223D01A4B1B7847
S1132030002B1FD1164B5B69002B23D09847002837
S113204020D00022114B1A80114B9C893F2C19D9A6
S11320500022114B1A7040240C4D2B880C4A9268B4
S1132060D218230000210D480D4EB0472B88E418E8
S11320702C8070BD04220B4B1A700B4907480B4B84
S11320809847F6E70122044B1A70E5E7660300203F
S1132090282F00206803002064030020C02D0020A6
S11320A05D3800006A030020402F00200139000041
S11320B010B50C002C4B1B78002B07D02B4B1B6945
S11320C0002B00D098470022274B1A702388082B36
S11320D002D0274B984710BD244A264B197811701B
S11320E059785170D8780002997809185180587934
S11320F00002197909189180D97909029B795B1832
S1132100D3801D4B9847002816D0184B1B787F2B83
S113211015D8164BDB88002B22D00023174A1380D6
S1132120174A13800122104B1A704023114A0021D0
S11321301448154CA047CEE70D4B9847CBE7002336
S11321400E4A13800E4A13800222074B1A70402352
S1132150084A00210B480C4CA0470C4B9847BAE79F
S11321600B4B9847B7E7C0466A030020282F00208E
S1132170F91D0000402F002019080000680300200A
S113218066030020C02D0020B138000009200000A3
S1132190791F000010B5024B9847024B984710BDB9
S11321A0D5070000F14D000010B5074C04212000B4
S11321B0064B984702212000054B98470120054B08
S11321C09847054B984710BDC02D0020F132000000
S11321D0D1320000611B0000154E000010B5040050
S11321E001000A480A4B984720000A4B9847837C11
S11321F0DB070AD5837C0122934383740368002B95
S113220003D0C16822000120984710BDC02D0020D2
S113221051370000211C0000024B1B68188A8004FF
S1132220400D7047C02D002070B582B0040001AD90
S113223028000D4B984720000C4B98472C70002326
S1132240EB700B4E290030000A4B98470F212140B8
S113225000223000084B9847002221003000074B31
S1132260984702B070BDC046FD340000DD21000077
S1132270C02D00200D350000353300002D34000042
S1132280F0B583B005000F00140001AE3000364BEA
S113229098473570082C13D8002201AB5A702800D7
S11322A0324B9847048203213940012938D002294E
S11322B043D0002303293DD1042201ABDA7032E07C
S11322C0102C03D8012201AB5A70E8E7202C03D864
S11322D0022201AB5A70E2E7402C03D8032201AB7F
S11322E05A70DCE7802C03D8042201AB5A70D6E77D
S11322F080235B009C4203D8052201AB5A70CEE7D1
S113230080239B009C4203D8062201AB5A70C6E787
S1132310174A002394420DD8072201AB5A70BEE736
S1132320022201ABDA7001A91248134B984700232B
S1132330002806D0180003B0F0BD032201ABDA7008
S1132340F1E70F2129400B4C0C4B002220000C4ECE
S1132350B0470022290020000A4EB047012229007C
S11323602000B0470123E5E7FD340000211C0000F4
S1132370FF030000C02D00200D350000451C0000A7
S11323800D3300005D33000010B501000148024B1D
S1132390984710BDC02D00208737000010B50400F9
S11323A00F2303400020022B00D910BD2100044854
S11323B0044B98472000044B98470120F5E7C0469A
S11323C0C02D0020B1370000DD21000070B5344B72
S11323D01B78012B0AD0022B5FD0324B1B69002BD8
S11323E000D0984700222E4B1A7070BD0D882D4BDB
S11323F09B892D4A14886219934201DA1D1BADB2E0
S1132400284B986800192A002849294B98476419D1
S1132410A4B2254B1C80402D0AD0224B9C815B69C1
S1132420002B02D09847002814D0224B9847DCE7B1
S11324301C4BDA88204B1B881B199A42EDDD194B83
S11324409B89A3420CD04023184A00211B481C4CF2
S1132450A047CAE70522124B1A701A4B9847C4E7E3
S1132460104B5B69002B0BD0984700280FD0124902
S11324700D4A0B8810881B180B8000231380E2E799
S11324800522074B1A7000200E4B9847ADE7052232
S1132490034B1A700B4B9847A7E70B4B9847A4E7DD
S11324A06A030020282F002066030020402F00200C
S11324B0B1720000791F000068030020C02D0020C5
S11324C0B13800009D2300000920000070B504000D
S11324D00F2303400020022B00D970BD2000094BBC
S11324E09847050021000848084B9847AB7C012019
S11324F0DB07F2D5AB7C01229343AB742B6898477E
S11325000120EAE7211C0000C02D0020D73700007D
S1132510F0B587B005000391029201930F2606409F
S11325200024022E02D9200007B0F0BD644B984766
S1132530041E00D0BDE02800624B98470700EFF36B
S113254010835A425341059372B6BFF35F8F002242
S11325505D4B1A70059A837CDB0708D5002AE2D00C
S11325600122594B1A70BFF35F8F62B6DBE7837C9D
S113257001210B438374002A05D00122524B1A70A7
S1132580BFF35F8F62B6029B7B60019BBB6000233D
S1132590FB600C9B3B600123039A13405A00BB7CF5
S11325A002218B43134304229343BB746BB2002B6D
S11325B020DB019B002B6FD09CB2444B9C425AD928
S11325C0398A1C001800424B9847631A9AB23B8A16
S11325D09A4257D2BA7C04210A43BA74721E9201F9
S11325E03C49521831003C483C4CA04744424441C9
S11325F0E4B298E7019B002B27D09DB2334B9D4258
S113260006D9398A1D001800314B98476B1A9DB2C0
S1132610BB7C9B0707D5398A2800314B984789B280
S11326204C424C41E4B2012020404000BC7C0223D7
S11326309C430443BC742B00029A31002648294C65
S1132640A04744424441E4B26DE7BB7C9B0705D5F7
S1132650BB7C02229343BB740025ECE7BB7C0122C4
S11326609343BB740C9B002B25D02A00002100202F
S11326709847012457E7398A2000194B9847631A71
S11326809AB2A4E71300029A31001348134CA047EE
S113269044424441E4B246E7BB7C01229343BB7409
S11326A00C9B002B09D02A0000210020984701240C
S11326B039E7002437E7012435E7012433E7C0462E
S11326C089230000211C0000D4000020FF1F00000B
S11326D045550000402D0020C02D0020B1380000D9
S11326E0715300005D380000024B1B6880221043C8
S11326F098727047C02D0020024B1B68987A4006E0
S1132700400E7047C02D0020014B9860998170479E
S1132710282F002070B50320164B9847164C2268CA
S1132720138901218B431381144A03312000144E71
S1132730B047144A00212000B047134A0121200069
S1132740B047124A02212000B04704212000104D56
S1132750A84700212000A84701212000A847022102
S11327602000A8470B4A06212000B047062120007C
S1132770A84770BD611B0000C02D0020A9210000E6
S1132780AD32000095210000C91E0000591E000052
S1132790D1320000251E000070B582B0EFF3108323
S11327A05A425341009372B6BFF35F8F0026184B11
S11327B01E70009C01AD2800164B9847AE70164E53
S11327C02A0016493000164B98473000154B98479D
S11327D0154B9B8C9B0614D41349D022CB68134011
S11327E0D02BFBD10120114B9847114B9847002C5B
S11327F005D00122064B1A70BFF35F8F62B602B098
S113280070BD09491022CB681A42FCD0EAE7C046E1
S1132810D40000200D3F0000C02D002000500041D6
S11328201D3F00003139000000080040611B00001A
S11328301527000010B504001C491D4B98470123BF
S1132840002806D01B492000194B98470223002872
S113285001D1180010BD18492000154B98470323D7
S11328600028F6D015492000114B9847042300286E
S1132870EFD0134920000E4B984705230028E8D0D9
S1132880104920000A4B984706230028E1D00E493E
S11328902000074B984707230028DAD00B49200073
S11328A0034B984743424341DB00D2E7C8A60000EC
S11328B0AD740000D0A60000D4A60000D8A6000085
S11328C0E0A60000E8A60000ECA60000F0A60000C8
S11328D00022014B1A607047802F002010B50400BD
S11328E0084B98472000084B9847002C03D002223D
S11328F0064B1A7010BD0122044B1A70044B984702
S1132900F8E7C04615030000F1020000CE000020E5
S1132910F92F000010B50020034B98470122034B08
S11329201A70012010BDC046DD280000CE00002032
S113293010B5041C054B9847054B9847201C054BC4
S113294098470120044B984710BDC046ED03000092
S11329501501000019300000DD28000010B582B018
S11329600E4B1A8801AB1A800D4B9847002803D0F0
S1132970022804D002B010BD0A4B9847FAE70A4C6B
S113298023689868094B984723681878084B984738
S1132990022101A8074B9847ECE7C046F8A60000BF
S11329A0692E0000152900000804002031290000C8
S11329B02D010000AD2C000010B50A4B1878012839
S11329C000D010BD084B1B68002BFAD09868074B49
S11329D098470023064A1370064A1370064A136088
S11329E00020EEE7CE00002008040020312900007A
S11329F0AD560020CC020020802F002010B51F4BC4
S1132A001B68002B36D01E4A1278012A34D01D4A86
S1132A101278002A01D1586810BD1B4B9847002238
S1132A20184B1A70194B1C68194B9C4217D8194B38
S1132A30194AA218180012301978117001330132A2
S1132A408342F9D11234114B1C60144B9847144B38
S1132A5098470A4B1B680020002BDDD0DBE70132CE
S1132A60104B1A70104A136816331360034B1B681B
S1132A705868D1E70020CFE70020CDE70804002004
S1132A80CE000020AD56002005420000802F00201B
S1132A90FE260000E42B0020842F00205D29000086
S1132AA045420000BD030020C0030020F0B5030030
S1132AB01E4A1068112834D9884234D8112923D9E0
S1132AC0002824D000221A4D184E5C1C501CAA5C0D
S1132AD01A70013989B2112904D023000200376821
S1132AE08742F2D80022114B1A60124B1B78002B3C
S1132AF018D0114B1B6899420BDD2278D318237030
S1132B0000220D4B1A600DE01C000020EAE71C00B7
S1132B10E8E723785B182370074B1A68511A196089
S1132B2000E00020F0BD0020FCE7C046802F00201C
S1132B30842F0020BD030020C0030020014B18781F
S1132B407047C046BD03002070B50500064B98478A
S1132B502B790524002B03D0044B9847200070BD2B
S1132B6001332B710024F7E70542000045420000C1
S1132B700023037170470000F0B591B02E4C05237B
S1132B80237000236370A37001A901224A708B7023
S1132B900A700520294B98472378D9090022002977
S1132BA004D15A09D20126498C4662441F273B406E
S1132BB0012529009940916102AC257000230393FB
S1132BC023746374A574E5740C22002108A81D4BBA
S1132BD098471D4BA3618C239B03E3601B4BA362AB
S1132BE001235B42E3621A4B23631A4B6363802322
S1132BF05B05A360257503222423E254164E2200AC
S1132C0016493000164B984716493000164B984722
S1132C1034682000154B98470740BD40144B1D6095
S1132C203268D369002BFCD123680222134323604A
S1132C30104B984711B0F0BDC4030020DD410000E3
S1132C4000440041C3720000A08601000300040098
S1132C500300060003000700C80300200008004228
S1132C6035110000001BB7007D1000001910000092
S1132C7000E100E0792C000010B5064C0222064960
S1132C802000064B98473722A35C04210B43A3542E
S1132C9010BDC046C8030020A12C0000E9150000A7
S1132CA00122014B1A7070470404002090B583B0D0
S1132CB000AF78600A00FB1C1A70FB1C1B78192BF0
S1132CC001D9002320E0124B1800124B9847124AF6
S1132CD079680F480123114CA047FB1C1B78012B7A
S1132CE00DD902200E4B98477B68591C0D4AFB1CDA
S1132CF01B789BB2013B9BB20548084CA047044B90
S1132D001800094B9847044B1800BD4603B090BD0A
S1132D10C8030020492B00009456002049130000EA
S1132D20F931000095560020712B000090B585B054
S1132D3000AFF8607A600B23FB180A1C1A700B238F
S1132D40FB181B78192B01D9002323E0134B18001F
S1132D50134B98477A68F96810480123114CA0472F
S1132D600B23FB181B78012B0FD902200E4B98471D
S1132D70FB68591C7B685A1C0B23FB181B789BB2FD
S1132D80013B9BB20548074CA047044B1800074B76
S1132D909847074B1800BD4605B090BDC8030020F6
S1132DA0492B000049130000F9310000712B000089
S1132DB094560020F8B507000D1C16001020194B7E
S1132DC09847041E27D00120002F25D01649281C1F
S1132DD0164B9847002820D01549281C154B9847B6
S1132DE000281CD0731E9BB201203E2B14D8124B1A
S1132DF01A6867602680A5600023E360002A04D176
S1132E000D4B1C60002007E01A00D368002BFBD197
S1132E10D460002000E00220F8BD0120FCE701207E
S1132E20FAE7C046897200000000B2371956000064
S1132E3000007A46F15500000804002010B5084B44
S1132E401868002809D01C00C3682360054B984704
S1132E502068431E9841C0B210BD0020FCE7C04664
S1132E60080400209D72000010B5094B1A68002A5E
S1132E700CD05368013B53600120002B00D010BDDF
S1132E80044B98470028FAD00220F8E70020F6E720
S1132E90080400203D2E0000074B1B68002808D0C2
S1132EA0002B06D00022DB680132904201D0002BB7
S1132EB0F9D118007047C04608040020F0B585B069
S1132EC00D0016000D4B9847041E10D04768038868
S1132ED0029380680A4B9847009001913B00094A8D
S1132EE031002800084DA847200005B0F0BD0F228E
S1132EF006492800064B9847F6E7C046992E00007D
S1132F0071700000FCA600004974000030A70000A6
S1132F10B17200000C4B00221A7000219A801A81B1
S1132F2059709972D97219739973597319745A61D2
S1132F309A6119771A625A621A855A859A850832F3
S1132F409A7018329A7170470C04002070B5041CF2
S1132F501B4D0023AB621B4B98471B4B1880A8806A
S1132F60211C1A4B9847E862194C2A001949200081
S1132F70194B9847022219492000194B9847206899
S1132F80184B9847184B1B5C1F221A40012393408F
S1132F90164A1360637E102213436376226810235B
S1132FA05373D37B5BB2002BFBDB138802210B43EF
S1132FB0138000230E4A13700E4A137070BDC0466E
S1132FC00C040020313000005C0400204531000076
S1132FD04004002000300042251900007D3100002B
S1132FE025180000ED180000D000002000E100E0EA
S1132FF0AD560020AE560020064B1A68D37B5BB258
S1133000002BFBDB3B2313739373138802218B4345
S1133010138070474004002010B5041C024B9847ED
S1133020201C024B984710BDF92F00004D2F0000C3
S113303010B5011CFE208005214B9847041C214932
S1133040214B98470023002807D12049201C1E4B00
S11330509847002803D080235B00180010BD1C494A
S1133060201C194B9847002802D080239B00F4E7CA
S11330701849201C144B9847002802D0C0239B00F9
S1133080EBE71549201C104B9847002802D08023F9
S1133090DB00E2E71149201C0B4B9847002802D0C3
S11330A0A023DB00D9E70E49201C074B98470028D2
S11330B002D1E023DB00D0E7C023DB00CDE7C0462C
S11330C029570000FCF4B242F1550000FCF43243ED
S11330D0FCF4B243FCF43244FCF4B244FCF4B245D4
S11330E0FCF4B246C0239B00984226D00ED9A023FC
S11330F0DB00984223D017D9C022D200002390428B
S113310017D00132FF32904213D00BE080235B00D2
S1133110984210D080229200FC3B904209D0033B9D
S1133120002806D0002304E08022D200102390421D
S1133130F8D1180070470223FBE70823F9E740237E
S1133140F7E7000010B50C1C064B9847064B984750
S1133150211C064B9847011C0548064B9847064B13
S1133160984710BDE5300000C1600000095B000015
S1133170001B374C29570000BD5600000122064BA6
S11331801A70064B1B78002B04D0054B1A700022D2
S1133190024B1A707047C046AE560020CC02002085
S11331A0AD56002080B582B000AF78600C4B7868D3
S11331B09847021C0B4B111C0B489847031C181C06
S11331C00A4B9847C0460A4B1B7801225340DBB296
S11331D0002BF8D1074B9847C046BD4602B080BDCE
S11331E0C16000002957000000007A444D2F000000
S11331F0AE560020F92F000090B585B000AF78607E
S11332000023FB607B68124A5A43124B1100124898
S1133210984703001A00114B1000984703000C0054
S1133220180021000E4B98470A0001000D4B0800BE
S1133230110098470300BB60FB680133FB60FA6828
S1133240BB689A42F8D3C046BD4605B090BDC0469F
S113325080841E0065520000006CDC0201700000D6
S113326035510000ED56000070477047704700006C
S1133270014B18707047C046D300002010B5094BAD
S11332801B78002B07D1FA218900074B984789B294
S1133290002901D1C04610BDFA235B009942FAD13E
S11332A0C046F8E7D30000207153000010B50B00AE
S11332B02E339B001A50AA2252004900835A034C11
S11332C0095B0B438352002010BDC04654A7000085
S11332D04900064BCB5A02689383AB214900425AFA
S11332E01A434252026813830020704754A7000017
S11332F04900054BCA5AAB214900435A93434352F0
S113330003689A820020704754A7000010B58C000F
S1133310A4183434A4000419636040185930FF30F1
S1133320037803498A5C13430370002010BDC04630
S113333064A7000010B58B009B1834339B00C3189E
S113334000245C6040185930FF30034B9A5C0378CA
S113335093430370002010BD64A7000070B50F23D1
S11333600B40C4186134FF3425782F4EB65C3543C6
S11333702570002A29D1002B12D103250A24FF34F9
S113338006683555032A09D149B2002944DB02688D
S11333905B01D3180A33FF3320221A70002070BD5A
S11333A04CB2002C08DB5C010568AC4664440A346A
S11333B0FF3401252570E5E75C010568AC466444EB
S11333C00A34FF3402252570DCE7012A1AD1002BC8
S11333D005D102680C210A23FF33D154DEE749B238
S11333E0002907DB02685B01D3180A33FF33042288
S11333F01A70D3E702685B01D3180A33FF3308223B
S11334001A70CBE7022ABDD102685B01D3180A33D4
S1133410FF3310221A70C1E702685B01D3180A3324
S1133420FF3340221A70B9E764A7000070B50F2378
S11334300B40C4186134FF342F4DAE5C2578B5437E
S11334402570002A29D1002B12D10325842464007D
S113345006683555032A09D149B2002944DB0268BC
S11334605B01D3180933FF3320221A70002070BD8A
S11334704CB2002C08DB5C010568AC46644409349A
S1133480FF3401252570E5E75C010568AC4664441A
S11334900934FF3402252570DCE7012A1AD1002BF8
S11334A005D102680C210933FF33D154DEE749B258
S11334B0002907DB02685B01D3180933FF330422B8
S11334C01A70D3E702685B01D3180933FF3308226B
S11334D01A70CBE7022ABDD102685B01D318093305
S11334E0FF3310221A70C1E702685B01D318093355
S11334F0FF3340221A70B9E764A700000023037069
S1133500437083700133C37070470000F0B50C78CA
S11335100F23234064B2CA78042A70D89200894DDC
S1133520AA589746026808335B0100219954002287
S113353082E05C0102689446644480225200A55CE7
S1133540E43A6D0778D1E432A65C7025E43A2E4261
S113355072D15F3DE432A5541A0008325201046866
S1133560A4182F35657100688218802010718A783C
S1133570002A1FD05801744A12185468802000068B
S11335800443546054692043506107254C785A0120
S11335906D4B9B1858682C4024076C4E30402043D8
S11335A0586049785A692940090732400A435A61E8
S11335B0002241E05801644A121850684000400853
S11335C050605069400040085061DEE7002C35DB54
S11335D05D0102689446654480225200AE5CE43A80
S11335E0760729D180267600AA5D02273A43AA5598
S11335F00268180008304001121840205071E20F90
S11336004F785D00AD182D014F4E75196868072479
S11336103C4024074D4E304020436860897800299F
S113362000D088E05B009B181B01474AD3185A68F6
S1133630520052085A6000221000F0BD5D01026879
S11336409446654480225200AF5C7026E43A3742C7
S1133650F2D19036AA5D20273A43AA550268180091
S113366008304001121880201071C8E7002C17DBC5
S11336705D0102689446654480225200AE5CE43ADF
S11336807607D9D180267600AA5D03273A43AA5546
S11336900268180008304001121840205071AEE74B
S11336A05D0102689446654480225200AF5C702636
S11336B0E43A3742C0D19036AA5D30273A43AA553E
S11336C0026818000830400112188020107196E733
S11336D0002C17DB5D010268944665448022520089
S11336E0AE5CE43A7607A7D180267600AA5D04276B
S11336F03A43AA55026818000830400112184020C5
S113370050717CE75D010268944665448022520052
S1133710AF5C7026E43A374200D08DE79036AA5D5C
S113372040273A43AA55026818000830400112188D
S11337308020107163E7696880231B060B436B606C
S1133740002279E740A70000B0560020FFFFFF8F5A
S11337500F230B4049B200290ADB08335B010268DE
S1133760D218402151710268D3180122DA717047CE
S113377008335B010268D218802111710268D318E2
S11337800222DA71F3E70F230B4049B2002907DB69
S1133790026808335B01D3189879C006C00F7047DC
S11337A0026808335B01D31898798006C00FF6E7E6
S11337B00F230B4049B2002906DB026808335B0182
S11337C0D31810225A717047026808335B01D3186A
S11337D020225A71F7E730B50F230B4049B2002974
S11337E01DDB59010268521883246400145DE40649
S11337F014D5102582246400155502685218082136
S1133800FF31515C890609D5E43C0821FF31545449
S1133810026808335B01D31801221A7130BD5901C3
S11338200268521883246400145DA406F6D520258A
S1133830822464001555026852180821FF31515C36
S11338404906EBD5C43C0821FF31545402680833BF
S11338505B01D31802221A71E0E7000030B50C00B6
S1133860083464010568645D6406640F1C25002C3B
S113387001D1280030BD4C010B4D2D192C002A61BB
S11338806A690A4D2A40626162699B049B0C920B2F
S11338909203134363610368083149015918802373
S11338A04B710025E5E7C046B0560020FF3F00F00D
S11338B030B50C00083464010568645D64071C2598
S11338C0002C01D1280030BD0B4C4D012A51621946
S11338D054689B041B09094D2C40234353605368CF
S11338E09B0B9B035360036808314901591840231B
S11338F00B710025E6E7C046B0560020FF3F00F0FC
S1133900094B19605A6809491140802292020A43FE
S11339105A605A68920B92035A60026840218223CB
S11339205B00D15400207047B0560020FF3F00F0E8
S11339300268137802210B43137002689378022BF8
S1133940FCD07047F0B5DE4657464E464546E0B5D6
S113395083B0C24B1F683D682B78DB0914D12E8CD1
S1133960B6B2002E00D0A9E1AE8BB6B2AB235B0099
S1133970FB5AAA225200BD5A1D4035400024B84FBC
S1133980B64B9946984684E12B8C9BB2002B00D110
S1133990DEE0288C80B2B34B984704001F2800D97E
S11339A0D6E0030008335B01ED18ED79EDB2AB0707
S11339B041D0AD4A0123834011689943116003004B
S11339C008335B013A68944663440322DA713B1876
S11339D0AE331B78DB072ED5A44B18703A6803006E
S11339E008335B019B5C9B079B0F012B00D181E09B
S11339F042019F4B9B185A681201920C90B29B494A
S1133A004A805A689204920C8A805A6899490A40FA
S1133A105A60002807D16201954B9B185B689B0490
S1133A209B0C924A53808D4B1868A31C1B01C3182E
S1133A305B688E4998476B070ED58B4A0123A340D8
S1133A40116899431160854B1B681B68220008327A
S1133A5052019B180422DA712B0714D5824A0123E0
S1133A60A3401168994311607C4B18682300083304
S1133A705B010268944663440822DA710319AE3389
S1133A801B789B0747D4EB0614D5774A0123A34040
S1133A90116899431160714B1868230008335B0166
S1133AA00268944663441022DA710319AE331B781A
S1133AB05B073ED4AB0600D4B0E06B4A0123A340BD
S1133AC0116899431160654B1868230008335B0142
S1133AD00268944663442022DA710319AE331B78DA
S1133AE01B0700D49AE061490C7024010419236B6C
S1133AF0984793E042015E4B9B185A689204920CDB
S1133B005A494A805A681201920C8A805A68920B68
S1133B1092035A6087E755490C706201544B9B1815
S1133B20DB891F2213404B702301C3189B6A9847FB
S1133B30A9E74E490C7062014D4B9B185B681B0151
S1133B409B0C4B802301C318DB6A00219847B1E723
S1133B50AC8BA4B2630705D50423AB83A133FB5C10
S1133B60DB0762D423070BD500223F4B1A603B4B83
S1133B7018680823026893839D33C35C9B0758D459
S1133B80630608D5354B1868402302689383653370
S1133B90C35CDB0650D4A30608D5304B1868202339
S1133BA0026893838533C35C1B0748D4E30608D5B6
S1133BB02A4B18681023026893839533C35C5B0710
S1133BC040D423060BD50022274B1A60234B1868D8
S1133BD08023026893832533C35C9B0635D4E305B5
S1133BE00CD50022204B1A601C4B186880235B0004
S1133BF0026893835B3BC35C5B0629D4A3050DD5A4
S1133C000022194B1A60154B186880239B00026828
S1133C1093835C3BFF3BC35C7F2B1CD803B03CBC51
S1133C2090469946A246AB46F0BD7B68380098475B
S1133C3098E783689847A3E743699847ABE7036924
S1133C409847B3E7C3689847BBE783699847C6E7D3
S1133C50C3699847D2E7036A9847DFE76004002006
S1133C6054A700007D560000700400207404002056
S1133C70B0560020FF3F00F023002E339B00424645
S1133C8012689B589E494246106898470134072C95
S1133C90C4D06300DB5B334203D04A461268126827
S1133CA093832B42F2D0062CE6D1964B1B891B0939
S1133CB0802252001340924A1360DDE73C005934DD
S1133CC0FF340023012294465F329146503A9246D3
S1133CD00D3A9346B8462F00B9E02A003D00474606
S1133CE090465B01ED180823FF33EB5C5B0616D5A9
S1133CF040220823FF33EA54883BFF3B42461343E8
S1133D00814A937160230B4200D187E7019B1B0119
S1133D10FB18E0331B687C49380098477EE708238A
S1133D20FF33EB5C9B06EDD520220823FF33EA54D6
S1133D30754B42469A71E5E73D004746019A1300E8
S1133D4008335B01ED181023EB71BB186133FF33AB
S1133D501B78DB0600D461E710005201694B9B1805
S1133D605B689B049B0C68490B800301FB18DC33E4
S1133D701B684046984751E72A003D004746904655
S1133D805B01ED180823FF33EB5C9B071ED5022271
S1133D900823FF33EA545C48883BFF3B4246134305
S1133DA08371019B5A01574B9B1810335B689B042A
S1133DB09B0C43808B0700D130E7019B0D331B0123
S1133DC0FB185B6850493800984727E70823FF33FE
S1133DD0EB5CDB07EED501220823FF33EA544A48A3
S1133DE043468371019B5B01464AD21853689B0486
S1133DF09B0C038053681B019B0C8380DAE7082229
S1133E00FF329A5C52076ED504200822FF32985480
S1133E10019842013B4B9B189B7A9B0705D5394B74
S1133E209B189A7A022082439A72374B42469A71BF
S1133E30019B08335B013A6894466344DB79DB07F2
S1133E4051D5EBE601330134082B00D1E6E6DDB2AF
S1133E50019332001A4161461142F3D01A0008322C
S1133E605201BA18D279D2B2217A11402078014095
S1133E704846104200D030E75046104200D05BE77D
S1133E805846104200D077E70C201042DAD02A00BE
S1133E903D00474690465B01EB180822FF329A5CCE
S1133EA01207ACD504380822FF3298540198420115
S1133EB0144B9B189B7E9B0705D5124B9B189A7E2F
S1133EC0022082439A7680235B42424613430E4A81
S1133ED09371019B08335B013A6894466344DB7930
S1133EE09B0700D59AE60C230B4200D196E6019B72
S1133EF01B01FB18D8331B680349380098478DE62B
S1133F0064040020B05600206804002000220270DF
S1133F10012343708270C37070470000F0B5CE4631
S1133F20474680B583B004000D00160000236E4A96
S1133F3013606E4A106021606D49CA6920200243F3
S1133F40CA6101AF7B700122BA70FB7006339946D7
S1133F503B7039000838674B984698474B463B708E
S1133F6039001920C047B3786A46137069460620A1
S1133F70614B98470620614B98472B7801221343E5
S1133F802B70AB78DB07FCD45D4AD37803218B43D9
S1133F9002210B43D370D3780C218B4308210B43AC
S1133FA0D370584B1B689B03DB0E1F2B00D18FE093
S1133FB02A8D9B0154490A4013432B85514B1B689E
S1133FC05B02DB0E1F2B00D184E02A8D1F218A4364
S1133FD013432B854B4B1B689B015B0F072B00D1B5
S1133FE07AE02A8D1B0349490A4013432B85327812
S1133FF02978D2017F230B4013432B7071782B78DF
S113400001220A40920004218B4313432B70404B3E
S11340106B62F378012B61D0002B06D122681389DF
S11340200C218B4304210B43138180225200002175
S11340303748384B9847231D21002431002204C3FC
S11340408B42FCD12100A43100221A605A609A608C
S1134050DA6010338B42F8D10023A422A354013236
S1134060A3542300A6332100AE3100221A701A7221
S113407001339942FAD12300B8332100D43100220C
S113408004C38B42FCD121005531FF3100221A6058
S11340905A609A60DA6010338B42F8D10023AA2266
S11340A05200A3520232A35223005933FF33613426
S11340B0FF3400221A701A720133A342FAD180220B
S11340C0154B1A60002003B00CBC90469946F0BD15
S11340D01A3B6DE7023B78E7043B82E722681389C9
S11340E008318B431381A0E7700400206004002092
S11340F000040040E5490000ED480000614800006C
S113410000500041246080003FF8FFFFFF8FFFFF55
S1134110B0560020C372000000E100E01723002A1B
S113412001D0180070478B00064A9B58002B03D01F
S1134130834205D01D23F4E7890088500023F0E76B
S11341400023EEE7E02C00201723002901D01800FB
S1134150704700221F2800D8024A01238340D360FD
S11341600023F4E7001800401723002901D01800A9
S1134170704700221F2800D8024A0123834093601D
S11341800023F4E70018004070B50022104B1A70A9
S1134190002310491F25104E0D4C0AE00D4908E07C
S11341A023780133DBB223700F2B10D800211F2B8F
S11341B0F4D9280018400122824008691042EFD047
S11341C00A619B009B59002BEAD09847E8E770BD31
S11341D0B057002000180040E02C002000B583B048
S11341E001AB80221A700A785A704A789A708A78D9
S11341F0DA701900014B984703B000BDE54900008F
S1134200704700000C4B1B68002B06D1EFF31083A2
S1134210002B07D00022094B1A70074A1368013398
S11342201360704772B6BFF35F8F0022044B1A709D
S11342300132024B1A70F0E77C0400208004002055
S1134240D4000020084B1A68013A1A601B68002B3E
S113425009D1064B1B78002B05D00122044B1A70A0
S1134260BFF35F8F62B670477C0400208004002097
S1134270D400002010B5082803D880001E4B1B581A
S11342809F46002036E01D4B186933E01C4B1B6A27
S11342909B059B0F1B48D8402CE0184B586929E01C
S11342A0164B1B6800209B0724D515491022CB68A8
S11342B01A42FCD0114B1B689B0601D5124819E029
S11342C00E4B1B685B0701D40F4813E000200F4B13
S11342D098470A4B9B681B041B0C58430AE0502365
S11342E0074AD35C00205B0704D5044BD86801E07F
S11342F08020000210BDC04668A70000840400208E
S11343000008004000127A00006CDC020949000039
S113431070B50C490B6A0478857840780122104006
S113432080014026B34303432A40D20180208343C3
S113433013430322224012020348034013430B6237
S113434070BDC04600080040FFFCFFFFF0B501004F
S1134350274B1B8A5D056D0F42780F2414400278A9
S113436057427A41D2B28678002E12D14068214F4A
S1134370B8420DD9204FB84233D9204FB84232D970
S11343801F4FB84231D91F4FB84202D8042500E06C
S11343900025487A0F7ABC464F681B490F610121FA
S11343A09700042293431A003A4363460B409B014F
S11343B04027BA431A430840C00180239A4313009C
S11343C003432D02114A13402B433140C902104AC2
S11343D013400B4324031B051B0D2343044A138280
S11343E0F0BD0125D5E70225D3E70325D1E7C04673
S11343F00008004080841E0000093D0000127A007D
S11344000024F4000048E80184040020FFF8FFFFC2
S1134410FFF7FFFF10B5037A9B061B0C4289920538
S1134420920D134318494B608379C2791343428830
S11344308488224313434278D20113430B600378E8
S1134440042B11D0202B0ED1037B9B06028A13432D
S1134450C28912040D490A4013430B4A9360116840
S11344600B4B0B43136010BD037B9B06028A134363
S1134470C289120405490A401343034A936013682E
S113448004210B431360EEE7840400200000FF03C3
S113449024040000082803D88000254B1B589F469D
S11344A0172044E0234A136A02210B4313620020BD
S11344B03DE0204A936902210B439361002036E0DA
S11344C01C4A138A02210B43138200202FE0194A4D
S11344D0938A02210B439382002028E016490B683B
S11344E0022213430B60134B9A8419000E32CB68DB
S11344F01A42FCD0104A91680E4BD96252689A62F3
S113450000229A8419001032CB681A42FCD00A4B5C
S11345101B689BB2074A9384002008E005494422A3
S11345208B5C022003438B54002000E00020704782
S11345308CA700000008004084040020F0B5CE469B
S1134540474680B58DB0C222D2004B4B9A604B4A8D
S113455053681E218B431C390B43536004236A4662
S113456013700024464DE0B26946A8470134252C57
S1134570F9D109A8002404700123837043720F2227
S11345804270404A426003723F4B984700203F4BC1
S1134590984704AB00225C809A71DA71202119706B
S11345A05A703B4B1B689B0E3F2B63D004A80372CD
S11345B00723984603730A23C381364B4381FF3B89
S11345C08380354B0382354B984703A801258570BA
S11345D0002404704570324B984706202B4B9946B3
S11345E09847304B984701956B465C705C72424625
S11345F01A701D72694601202B4FB84701202B4EBB
S1134600B04701956B465C705C721C701D72694604
S11346100220B8470220B0476B465C705C72424689
S11346201A70022301936B461D7269460320B84732
S11346300320B0470720C8470F491022CB681A420D
S1134640FCD01B4A0023137253729372D37201225B
S1134650019269464B704B7207330B700A7200204B
S1134660114B98470020114B98470DB00CBC904655
S11346709946F0BD203B99E7000800400040004106
S1134680ED4800000024F4004D4300009544000070
S113469024608000FF01000080BBFFFF1544000080
S11346A011430000B5460000D946000091470000C0
S11346B000040040064A936908210B4393610122D8
S11346C0044B1A7019000B781342FCD17047C04692
S11346D000040040000C004070B5060004000D7892
S11346E02D0205434B78002B02D08023DB021D43AF
S11346F04B7A002B02D080231B031D4348680128FA
S113470010D9431E184234D1022830D90223002282
S113471001325B009842FBD812023243140080231A
S11347205B031D430B7A002B02D080239B031D43A4
S1134730134A53785BB2002BFBDB124B9847124BA6
S11347401E700F4A53785BB2002BFBDB0C4B9C6052
S11347501A0053785BB2002BFBDB094A53688021B3
S113476049020B401D435560084B984770BD002219
S1134770D2E70402344380239B021D43D2E7C046A0
S1134780000C004005420000080C004045420000B7
S113479010B504000B4A53785BB2002BFBDB0A4BC9
S11347A098470A4B1C70074A53785BB2002BFBDB1B
S11347B0044A516880235B020B435360044B9847BF
S11347C010BDC046000C004005420000040C00402F
S11347D04542000070B504001A4A53785BB2002BBE
S11347E0FBDB194B9847194B1C70164A53785BB284
S11347F0002BFBDB134E7068C004C00E144B9847AB
S11348000500124B1C707668F602F60F114B1C70F3
S11348100C4A53785BB2002BFBDB0A4B9C682402E6
S1134820240C0D4B9847002E07D1012C07D92100E9
S113483028000A4B9847050001E00134E5402800B0
S113484070BDC046000C004005420000040C00404E
S113485075420000080C004045420000655200000B
S113486010B50400064B9847064B1C70064A538843
S11348708021C9010B435380044B984710BDC046A7
S113488005420000020C0040000C004045420000BC
S113489010B504000F4B98470F4B1C700F4A5388F8
S11348A01B05180F53880E490B40538053880D493C
S11348B00B40538011008022D2014B881342FCD15B
S11348C006494A8803020648024013434B80064BBC
S11348D0984710BD05420000020C0040000C004047
S11348E0FFF0FFFFFFBFFFFF4542000010B50C784B
S11348F024020443024B9847A4B2024B5C8010BDCF
S113490091480000000C004010B50400064B984785
S1134910064B1C70064B5C882405240F054B9847F6
S11349202000054B984710BD05420000020C0040D2
S1134930000C004045420000D547000030B5D37854
S1134940002B35D11378802B29D01B0680246402D8
S1134950234354780225AC4306D19478002C20D10B
S11349608024A402234341605478013C012C1CD9C7
S11349700D042D0CA024E4052C431C4384620D0C6F
S1134980D02424062C431C438462D478002C22D1E6
S11349905B031CD59378012B1ED0416117E00023E3
S11349A0D7E7C024E4022343DDE70D4C2340DFE7CF
S11349B041600C04240CA023DB05234383620C0C0C
S11349C0D0231B0623438362D378002B03D153786F
S11349D0013B012B02D930BD8161F8E78160FAE720
S11349E0FFFFFBFF10B50A00C1090023002904D111
S11349F04309DB0105498C4663441F2420400121FF
S1134A0081401800024B984710BDC0460044004145
S1134A103D4900007047000010B5054B9847054B11
S1134A209847054B9847054B9847054B984710BD49
S1134A303D45000001420000154A0000390D000008
S1134A40154A0000FEE70000F8B52A4A2A4B9A42AC
S1134A5011D01A00294B9A420DD2294A03339B1ACA
S1134A609B0801339B000022234822498C58845020
S1134A7004329A42FAD1234A234B9A420AD2D343AC
S1134A8021495B1803218B4304339B18002102C284
S1134A909342FCD11D4AFF211D4B8B439360FD398A
S1134AA090235B001B4AD1501B4AD3780325AB43A8
S1134AB002242343D370D3780C27BB430826334303
S1134AC0D370164B987B3022904320221043987366
S1134AD0997BB943314399739A7BAA4322439A73CE
S1134AE00F4A536880210B4353600E4B98470E4B7B
S1134AF09847FEE740AC000000000020A802002018
S1134B0004000020B0020020EC57002000ED00E07B
S1134B1000000000007000410050004100480041C6
S1134B2000400041417200006D4F00000300064A3E
S1134B301268002A04D0044A1068C318136070472E
S1134B400249014A1160F6E79C040020F077002036
S1134B5010B5002200210020014B984710BDC0462B
S1134B604D05000010B5054A00231370536093608F
S1134B70034A13700020034B984710BDA004002083
S1134B80CC2B002071320000F0B589B007006949D0
S1134B90694B984703903B78002B00D1C8E003ADE4
S1134BA00124654E0134E4B262490020B0476860D4
S1134BB03B78002B02D00435042CF3D1A40000224E
S1134BC003ABE25003985D4B9847082800D9A0E056
S1134BD080005B4B1B589F4604985A4B9847C0B2C1
S1134BE0594B98470300594A32215948594CA04718
S1134BF094E0049B01930A2200211800564B984725
S1134C000500059B01931800544B984706000F00BC
S1134C1006984C4B984784B230003900504B984763
S1134C20011C220028004F4B984701280FD0002870
S1134C3007D0022811D00A224B4945484B4B9847CC
S1134C406CE006224A494248484B984766E00822ED
S1134C5048493F48454B984760E0052246493C484F
S1134C60424B98475AE0454B9847002805D0082204
S1134C70434937483D4B984750E006224149344860
S1134C803A4B98474AE0322200210498324B984725
S1134C9032222F493C4B984740E03C4B98473C4BD1
S1134CA0187008223B492A48304B984736E03A4B63
S1134CB09847374A1070002807D002280BD00622E4
S1134CC030492348294B984728E008223349204893
S1134CD0264B984722E00E2231491D48234B984722
S1134CE01CE0BFF34F8F2F4A2F4BDA60BFF34F8F77
S1134CF0FEE72E4B9847002805D005222C4914487E
S1134D001A4B98470AE006222A491148174B98473C
S1134D1004E0062228490E48144B98470122274BE9
S1134D201A70002200210020254B984709B0F0BDDD
S1134D30012443E7D4A70000458100003528000082
S1134D40B0A70000337200006D030000D8A7000074
S1134D50B457002049740000358400002972000013
S1134D6015710000B52D0000F4A70000B172000019
S1134D70DCA70000E4A70000ECA700003D2E000023
S1134D8000A8000008A80000BD2E0000152900009E
S1134D90CE00002010A80000B929000018A80000C7
S1134DA020A800000400FA0500ED00E03D2B0000FF
S1134DB030A8000038A80000F8A70000AC040020C8
S1134DC04D05000010B50122044B1A700022002189
S1134DD00020034B9847012010BDC046CC2B002077
S1134DE04D05000010B5014B984710BD654B000000
S1134DF010B5054B1B78002B00D110BD034B984711
S1134E00034B9847F9E7C046CC2B00201922000039
S1134E107D32000010B5014B984710BD6B32000085
S1134E2010B5014B984710BD6D320000044B812230
S1134E301A7000225A70034A9360022393817047C8
S1134E40D02B0020282F0020064B00225A605A70D5
S1134E509A70DA7081321A70034A9360082393813E
S1134E607047C046D02B0020282F002010B5094BD6
S1134E701B78002B0AD1084B81221A70054A12783C
S1134E805A70064A93600223938110BD044B9847DD
S1134E90F1E7C046A0040020D02B0020282F0020DA
S1134EA0654B00000A4B0B4A92685A6000225A7004
S1134EB09A70DA70084B1A780123002A00D18033E3
S1134EC0034A1370054B9A6008229A817047C046C2
S1134ED0D02B0020A0040020CC2B0020282F002061
S1134EE0034901220A70034B99609A817047C046B6
S1134EF0D02B0020282F0020044B01221A700022FE
S1134F005A70034A9360022393817047D02B002088
S1134F10282F002010B501240C4B1C70BFF35F8FA9
S1134F2062B60B4B98470B4B00221A705A709A705A
S1134F30DA701C71084B9847084B9847084B984700
S1134F40084B9847084B984710BDC046D400002032
S1134F50194A0000F82B0020152F0000A1030000BF
S1134F60D1280000693200007D070000F0B5C64674
S1134F7000B5284B9847284F0024261C274DB846D7
S1134F8010E0190001324B1CDBB210780028F8D075
S1134F90002B11D1012342461370BFF35F8F62B619
S1134FA01F4B984772B6BFF35F8F3E702B78002B70
S1134FB0F0D12100194AE5E772B6BFF35F8F164BB3
S1134FC01C70184B9B691B051B0F022B05D8164A36
S1134FD05068C0239B000343536002290BD9032963
S1134FE011D001220C4B1A70BFF35F8F62B6BFF36E
S1134FF04F8F30BFD4E70D4A1369042083431361F4
S11350000B4B5970EDE7094A136904210B431361F3
S1135010E7E7C046154F0000D4000020F82B00201D
S1135020FD290000002000410040004100ED00E0A7
S11350300004004070B54378344A12789A4212D082
S1135040324A13700379427912021A4383791B049A
S11350501A43C3791B0613430020112B4BD92B4A47
S1135060536000239360294B5C680020002C42D0DD
S1135070274B1B78002B3FD0264D290026480C30A7
S1135080264B98472800264B9847030002002549E1
S11350908C4200D90C002000944200D91800002250
S11350A01B4B1A70002803D100221B4B1A730130CA
S11350B016494B681D1A4D608B681B188B60164B84
S11350C002241C7009785970C94399700021D97061
S11350D058606A426A411A7259729972D9723F23AE
S11350E00340343B59425941401801000C310E4AE7
S11350F009480E4B984770BD0A4B9C4200D91C00CE
S1135100A1B205480C300A4B9847CBE7A004002015
S1135110AC040020B4570020B0040020C174000087
S1135120D174000010270000514B0000310500002D
S1135130AD2A0000454AF8B5574692464B005B0D30
S11351409A444E464546DE465246E0B50C000500FC
S11351500E0089460700132A22DC002A47DB524648
S11351603B4B134198460B0042461340034311D076
S1135170384A394B00F0EAFF0022002300F012FA0B
S1135180002805D0002C41DB4E46434600279E43B1
S1135190380031003CBC90469946A246AB46F8BD67
S11351A05246332A08DD8023DB009A45F2D10200FF
S11351B00B0000F0CBFFEDE7284A9446012263443C
S11351C05242DA4093460242E4D0224A224B00F093
S11351D0BDFF0022002300F0E5F90028D8D0002C00
S11351E01ADB5B464E469F4338003100D2E7194A2A
S11351F0194B00F0ABFF0022002300F0D3F9002884
S1135200C6D0002C16DB00270026C1E780235246B7
S11352105B0313419944B7E75346142B12D034234C
S1135220524601279B1A9F407F19AF429B415B4224
S11352309944D6E76400640825430027002DA7D0CD
S1135240074EA5E7133B9C46E144CAE701FCFFFF78
S1135250FFFF0F009C7500883CE4377EEDFBFFFFE9
S11352600000F0BF002243088B4274D303098B4231
S11352705FD3030A8B4244D3030B8B4228D3030C22
S11352808B420DD3FF22090212BA030C8B4202D3C4
S11352901212090265D0030B8B4219D300E0090AEC
S11352A0C30B8B4201D3CB03C01A5241830B8B42F5
S11352B001D38B03C01A5241430B8B4201D34B03DE
S11352C0C01A5241030B8B4201D30B03C01A524143
S11352D0C30A8B4201D3CB02C01A5241830A8B42C8
S11352E001D38B02C01A5241430A8B4201D34B02B1
S11352F0C01A5241030A8B4201D30B02C01A524115
S1135300CDD2C3098B4201D3CB01C01A52418309C8
S11353108B4201D38B01C01A524143098B4201D302
S11353204B01C01A524103098B4201D30B01C01A2D
S11353305241C3088B4201D3CB00C01A52418308A7
S11353408B4201D38B00C01A524143088B4201D3D4
S11353504B00C01A5241411A00D201465241104634
S11353607047FFE701B5002000F0F0F802BDC04629
S11353700029F7D076E7704703460B437FD4002219
S113538043088B4274D303098B425FD3030A8B42D5
S113539044D3030B8B4228D3030C8B420DD3FF223F
S11353A0090212BA030C8B4202D31212090265D00D
S11353B0030B8B4219D300E0090AC30B8B4201D3C0
S11353C0CB03C01A5241830B8B4201D38B03C01A07
S11353D05241430B8B4201D34B03C01A5241030B7E
S11353E08B4201D30B03C01A5241C30A8B4201D32F
S11353F0CB02C01A5241830A8B4201D38B02C01ADA
S11354005241430A8B4201D34B02C01A5241030A50
S11354108B4201D30B02C01A5241CDD2C3098B4235
S113542001D3CB01C01A524183098B4201D38B01B2
S1135430C01A524143098B4201D34B01C01A524155
S113544003098B4201D30B01C01A5241C3088B429A
S113545001D3CB00C01A524183088B4201D38B0085
S1135460C01A524143088B4201D34B00C01A524127
S1135470411A00D201465241104670475DE0CA0FFE
S113548000D04942031000D34042534000229C46BE
S113549003098B422DD3030A8B4212D3FC228901C8
S11354A012BA030A8B420CD3890192118B4208D39E
S11354B0890192118B4204D389013AD0921100E000
S11354C08909C3098B4201D3CB01C01A5241830914
S11354D08B4201D38B01C01A524143098B4201D341
S11354E04B01C01A524103098B4201D30B01C01A6C
S11354F05241C3088B4201D3CB00C01A52418308E6
S11355008B4201D38B00C01A5241D9D243088B423B
S113551001D34B00C01A5241411A00D201466346DE
S113552052415B10104601D34042002B00D5494242
S1135530704763465B1000D3404201B5002000F081
S113554005F802BD0029F8D016E770477047C04639
S11355508446101C62468C46191C634600E0C04613
S11355601FB501F0A1F9002801D40021C8421FBDD4
S113557010B501F0FBF84042013010BD10B501F048
S113558093F9002801DB002010BD012010BDC046A6
S113559010B501F089F9002801DD002010BD0120BB
S11355A010BDC04610B501F01BF9002801DC002035
S11355B010BD012010BDC04610B501F011F900283E
S11355C001DA002010BD012010BDC0468446081C2D
S11355D06146FFE71FB500F055FA002801D4002109
S11355E0C8421FBD10B500F0E7F94042013010BDBC
S11355F010B500F047FA002801DB002010BD01209F
S113560010BDC04610B500F03DFA002801DD0020B1
S113561010BD012010BDC04610B500F0F3F90028FC
S113562001DC002010BD012010BDC04610B500F003
S1135630E9F9002801DA002010BD012010BDC046A0
S11356401C2101231B04984201D3000C10391B0AAE
S1135650984201D3000A08391B09984201D3000972
S1135660043902A2105C40187047C04604030202C9
S11356700101010100000000000000004142084057
S11356801C2101231B04984201D3000C10391B0A6E
S1135690984201D3000A08391B09984201D3000932
S11356A0043902A2105C401A7047C0461B1C1D1D21
S11356B01E1E1E1E1F1F1F1F1F1F1F1F9E2110B5F2
S11356C0C905041CFFF7B2FF002803D1201C00F019
S11356D0D7FC10BD9E21201CC90500F035FB00F04D
S11356E0CFFC80231B069C466044F2E770B5002281
S11356F00C4B04000D00FFF75FFF002804D12000CD
S1135700290001F049FC70BD064B0022200029004D
S113571001F02CF901F040FC80231B069C466044F8
S1135720F1E7C0460000E041F0B557464E46DE467C
S11357304546E0B544024300C60F83B00F1C640A1B
S11357401B0EB24653D0FF2B27D08022E400D20494
S113575014437F22524290469844002399469B4624
S11357607D027800FB0F6D0A000E009324D0FF2801
S113577046D080230021ED00DB041D437F384746DB
S1135780381A4F460F43BF00B9463300009A874F7B
S113579053404A46BA5801939746002C4ED10823E9
S11357A09946F7339846FD3B9B467D027800FB0FF4
S11357B06D0A000E0093DAD1002D26D100200121BC
S11357C03300009A7A4F53404246101A4A460A431D
S11357D09200BA581D009746009B2C009A468B46AF
S11357E05B46022B31D15346FF21002438E0002CC4
S11357F017D1042399460023984601339B46AFE70B
S1135800FF20002D0BD10221DAE72800FFF718FF53
S1135810431F9D4076235B42181A0021AFE7032102
S1135820ADE72000FFF70CFF431F9C4076235B424B
S11358301B1A9846002399469B4691E70C239946E8
S1135840F3339846FC3B9B468AE7032B00D1A5E043
S11358505546012B00D081E00123002100242B4078
S11358606402C905600ADB070843184303B03CBC63
S113587090469946A246AB46F0BD80240023E4033B
S1135880FF21EDE7FF210024EAE70123591A1B2930
S113589066DD019A134000210024E1E78023DB0345
S11358A01C4238D01D4251D01C436402640A3300A8
S11358B0FF21D5E763016C01A3423BD21B260021E3
S11358C0013801251F0049005B00002F01DB9C42C9
S11358D001D81B1B2943013E002EF3D11C00631E7B
S11358E09C410C4301007F310029CEDD630704D0C5
S11358F00F232340042B00D00434230103D50100DB
S11359002C4B80311C40FE290DDD0123019AFF211F
S113591013400024A4E78023DB031C436402640ACD
S11359203300FF219CE70123019AA401640AC9B250
S1135930134095E71B1B1A260121C2E7009B8B46E7
S11359409A4600244CE76302E5D500258024E4034D
S11359502C436402640A009BFF2181E70195C1E79F
S113596023002020CB40411A8C40611E8C411C43F3
S1135970630704D00F232340042B00D004346301B5
S113598005D50123019A01211340002468E701236E
S1135990019AA401640A1340002161E78023DB0318
S11359A01C436402640A5346FF2159E740A80000DF
S11359B080A80000FFFFFFF770B5420045024E02C9
S11359C04C00C30F6D0A120E760A240EC90F012073
S11359D0FF2A06D0FF2C03D0A24201D1B54206D043
S11359E070BD002DFCD1FF2CFAD1002EF8D18B42D2
S11359F006D00120002AF3D12800451EA841EFE774
S1135A000020EDE7F0B5420045024C02C30F480008
S1135A106D0A120E640A000EC90FFF2A1ED0FF2859
S1135A2021D0002A0AD16E426E41F6B200280FD16D
S1135A30002C0DD10020002D09D005E0002801D153
S1135A40002C01D08B4211D0012158420843F0BDF3
S1135A50002EF7D0012001390843F8E7002DDED0ED
S1135A6002204042F3E7002CDBD0F9E78242EBDC72
S1135A7004DBA542E8D80020A542E8D20121581E43
S1135A800843E4E7F0B542004D024C004602760AB2
S1135A90120EC30F6D0A240EC90FFF2A16D0FF2C55
S1135AA018D0002A0AD170427041C0B2002C15D01F
S1135AB0002805D0012001390843F0BD002C13D083
S1135AC0994214D001205B421843F6E70220002ECD
S1135AD0F3D1E4E70220002DEFD1E2E7002DE7D176
S1135AE00020002EE9D0EDE7002DE9D1EAE7A2423B
S1135AF006DCDFDBAE4203D80020AE42DAD3DCE7BB
S1135B00012049420843D8E7F8B557464E46454672
S1135B10DE46E0B54702460088467F0A360EC40FCB
S1135B20002E47D0FF2E24D0FB008027FF041F4304
S1135B30002399469A467F3E43465D025800DB0F98
S1135B406D0A000E984643D0FF283BD0EB00802519
S1135B500022ED041D437F383618731C41469B46D2
S1135B604B46614013430F2B64D875489B00C358C0
S1135B709F46002F42D108239946063BFF269A46AA
S1135B80DAE74146022A28D0032A00D1CEE0012ACE
S1135B9000D0ACE0114000200022CCB24002D2057B
S1135BA0400AE407104320433CBC90469946A24671
S1135BB0AB46F8BD002F15D104239946033B0026BC
S1135BC09A46B9E7FF200222002DC5D00322C3E77D
S1135BD0002D19D100200122BEE70124FF220C4030
S1135BE00020DBE73800FFF72BFD7626431F9F409C
S1135BF000237642361A99469A469DE70C23994625
S1135C00093BFF269A4697E72800FFF719FD431F33
S1135C109D4076235B42181A00229DE780200024D1
S1135C20C003FF22BAE73D005246ABE73D00210026
S1135C305246A7E73B0C9C462A04120C2B0C14007A
S1135C40604665463F043F0C7C4342435D437B43CF
S1135C50270C9B18FF18BA4203D980235B029C4689
S1135C60654424043A04240C121993015C1EA341D4
S1135C703F0C920E7D191A43AD0115432B0104D537
S1135C8001235E466A081D40154332007F32002A14
S1135C9025DD6B0704D00F232B40042B00D00435E3
S1135CA02B0103D53200274B80321D40FE2A94DCA1
S1135CB00124A801400AD2B20C406FE78020C0033F
S1135CC0074207D0054205D128434002400A444612
S1135CD0FF2263E738434002400AFF225EE70124C3
S1135CE0A31A1B2B05DD0C400022002056E75E465C
